:040000006F108019E4
:1000040000000000000000006F0080086F00E02284
:1000140000000000000000000000000000000000DC
:1000240000000000000000000000000000000000CC
:100034006F004006000000006F00E00500000000B3
:100044006F0080056F0060056F0040056F0020059C
:100054006F0000056F00E0046F00C00400000000A2
:100064006F0060046F0040046F0020046F00000400
:100074006F0060236F00C003000000006F00600386
:100084006F0040036F0020036F0000036F00E00265
:1000940001A001A001A001A001A001A001A001A054
:1000A40001A001A001A001A001A001A001A001A044
:1000B40001A001A001A001A001A001A0B717004068
:1000C400130770052380E704130780FA2380E704ED
:1000D4002396A70223800704371700408347270588
:1000E400898BEDDF835707053717004083472705C2
:1000F400898BEDFF3717004083472705898BEDDF98
:10010400035507058280B7170040930670052380C6
:10011400D704130780FA2380E70403C6B7041376D1
:10012400F60DA385C70423800704137605022DC6A4
:1001340003C6A700118A0DE22380D7042380E704B5
:1001440003C7A700136747002385E7009307004B05
:1001540001000100FD17EDFFB7170040930670057D
:100164002380D704130780FA2380E7047D8923942E
:10017400A70001000100010001002380070423807F
:10018400D7042380E7049306100537270040A30310
:10019400D780238007048280137605046DDE03C6AE
:1001A400A700418A0DE22380D7042380E70403C714
:1001B400A700136707012385E7009307007D01006B
:1001C4000100FD17EDFFB71700409306700523806B
:1001D400D704130780FA7D892380E7041365050497
:1001E4002394A700010001000100010023800704FB
:1001F4002380D7042380E704930630053727004083
:1002040079B74111814601468145114506C6AD22A3
:10021400B7170040130770052380E704130780FA1B
:100224002380E70403C76704136717002383E704E5
:1002340023800704B2404101828081460146814502
:1002440011451D2AB7170040130770052380E704E2
:10025400130780FA2380E7047D572396E70203C738
:100264006704136717002383E7042380070401A0AE
:10027400BD473305F50201007D1575FD82804111EE
:1002840022C426C206C6AA84014463179400B2405D
:10029400224492444101828005041305803E4204B5
:1002A400C13F4180DDB7B71700401307000323881F
:1002B400E702854723A6F18E7300203023030480D0
:1002C40015472303E48001002302A480828083076E
:1002D4006480E3CE07FE2303048082808307648066
:1002E400E3CE07FE03454480828083076480E3CE27
:1002F40007FE2302A4808280411126C44AC24EC054
:1003040006C61377F50BAD47AA892E899544630673
:10031400F70019456537653F8D444E854537FD59CE
:10032400FD1463983401B240A24412498249410148
:100334008280135509011375F50F453F2209CDB786
:10034400011126CC06CEB704080051371545BD3738
:10035400713769372AC6A53F32459377150089EB73
:10036400136515001375F50FF240E24405618280B0
:10037400FD14E9FC0145CDBF397126DC4ADA4ED8BB
:1003840052D656D45AD25ED006DE62CE66CCB7E7D9
:1003940000E07D5783AA070022C603AA470023A0D2
:1003A400E71823A2E718B717004013077005238046
:1003B400E704130780FA2380E70483C74704930BF9
:1003C40075FFB684E20793FBFB0F8546AA892E8B43
:1003D400328937240040E187015763FA76016308C4
:1003E400D5008946130700026313D5000157D98F3E
:1003F40093F7F70FB71C00402382FC041147230333
:10040400E4801305F00F5D3D094CD13563697C111F
:10041400B70707003E9B378707007955637EEB02D9
:10042400B3079B00636AF702A9476399F90689E455
:100434008144713D26850DA0DA850945753D050980
:100444000345F9FFFD14050B4D3581C49377FB0F6C
:10045400FDF7FD3569FD7D55B7170040130770059D
:100464002380E704130780FA2380E70403C74704C3
:10047400418B2382E704F250B7E700E023A0571131
:1004840023A24711E25432445259C259325AA25A51
:10049400125B825B724CE24C21618280A5476395BA
:1004A400F90685691309F00FB3069900B3742B019B
:1004B400B6941349F9FFB3749900856B33796901D4
:1004C400416B9387F9FFB3F7270199E363FC340188
:1004D40093D94900C147E3E637FF99BF0569C1696C
:1004E4007D19D9B71305800D6388690113050002CE
:1004F4006384790113051008CA85FD3B913521DD1C
:100504004E99B3843441D9B7DA852D45F533CA946D
:10051400E30099F20509D933A30FA9FED5BF938748
:10052400F9FF93F7F70F636CFC0803C75C04B70784
:1005340008001377070219E3B78707007955E37DAD
:10054400FBF033079B00E3E9E7F089476390F90484
:100554008980D549E38E04ECDA850945713B11099C
:100564000327C9FF91472320E48003076480E34EF7
:1005740007FE23033481FD17EDFBFD14110B81C429
:100584009377FB0FE9FF6D3B71F5F1B58547E38781
:10059400F9F4DA852D458D339389F4FFE38A04E871
:1005A400353B93F7390091EB832604800327090038
:1005B40093074900E39FE6E63E89CE84F1BFB54741
:1005C4006396F9001305900BD5399DB5B147130512
:1005D400B00AE38BF9FE9947639EF902DA852D454B
:1005E400213B81448D4BA149D539639674018327FE
:1005F40004802320F9008504E39834FF83270480D2
:1006040013172B01635507002312F90015B5232294
:10061400F90039BD9D476399F90281451305B0047A
:10062400E139BD442320090023220900FD597D310D
:1006340093F77400CA9703C70700FD14398D23800C
:10064400A700E39634FFEDB3A1476392F904CD39D3
:100654008144630D0B008D479304C0036308FB00C2
:100664009304000563048B01930440041375C507C8
:10067400E30095DC19459931993905458131268581
:10068400AD3109459D316D39E31405DAE9B391477C
:100694006399F9001305600615311539130590099E
:1006A40025B7E38709D8F15469B319CDB7170040CA
:1006B400130770052380E704130780FA2380E704F7
:1006C4002396A70223800704828019C1814799E9F0
:1006D40082803387F500834607003307F5008507DA
:1006E4002300D700E397C7FEE5B719C1FD5781E999
:1006F4008280910503A7C5FF1105232EE5FE7D1613
:10070400E319F6FEF5B7797122D417340000130407
:10071400E4E41C4006D626D24AD04ECE91C7829736
:100724009737000023AC07E25C4089CB03D5818F67
:10073400AD3F5C40829703D5A18F853F1C40639CED
:1007440007189737000083C7F7F4858B95C7973749
:100754000000A38107F4173700000347D7F391473C
:1007640063FCE7007D2B9737000083C7D7F2F917A6
:100774008A07A2979C4382979737000083C747F65E
:10078400918B89C7972001E0E780C0CA1C4491C3BC
:1007940082979387418F984317360000034616DAF1
:1007A4003E8997340000938464D99737000083C747
:1007B400E7D893961700BA9683D60600638306108B
:1007C4009737000083C787D763FBC70686073E9722
:1007D400835507002310070003D5818F2EC6F135FA
:1007E400938781909C4317350000034525D5131743
:1007F4002500BA979C43B2458297AA8903D5A18F55
:100804006D359737000083C767D313971700832785
:100814000900BA9703D70700B3E9E9002390370129
:1008240083C70400850793F7F70F173700002307E2
:10083400F7D017370000034777D063E6E700973710
:100844000000238D07CE1C40D9E79387019098437D
:100854003E8451C39737000083C737E491CB973761
:10086400000083C757E389E7972001E0E7802081F0
:100874001C4082972A8425C19C48AA9717370000F8
:100884002326F7CC938741909C43B1C703D5818F2E
:10089400293D2285971000E0E78040C99737000082
:1008A400938707C6DC5389C7971000E0E780E0A16F
:1008B4002254B25092540259F24903D5A18F456192
:1008C400EDB3850793F7F70F973600002388F6C634
:1008D400E3EDC7ECF5B5B250225492540259F249F3
:1008E400456182809167B7C600409387373023A65D
:1008F400F6200F10000097370000938727C4884F15
:100904009387C19E9C43316713073730F053B70771
:100914001000FD17918F99833A0523A6E6205D8D7B
:1009240082804111B7170040985F3AC6945F3247FE
:10093400E39CE6FE324541018280411106C6D5376B
:100944009736000083C606BD858AB1C69307303347
:100954003307F502B337F5023983CA07D98F17373E
:1009640000001307A7BD584B01456303F702338505
:10097400E740636BF70037653D0889C637856F0824
:1009840013050590198D3E95173700002322F7BCF7
:10099400B24041018280E5473307F502B337F502DF
:1009A4002583DE0765BF0327C50F8346B500973748
:1009B40000009387E7CD9C4F584393861602958297
:1009C4009043FD1693F6F60F10C3D04350C39047DF
:1009D40010C7D04750C7904B10CBD04B50CB904F43
:1009E40010CFD04F50CF91C6130707029387070249
:1009F400C1BF82808347E50193F7E70F91CB01459F
:100A040082800145B24022449244024941018280DD
:100A14008347F501EDF7834605010347850089CA3D
:100A24000346A5029737000083C7D7AE6367F60075
:100A340093770701E9D7814789CA83470515834618
:100A4400F514418BA207D58F01CB03474515834687
:100A540035152207558FBA97DDD3173700000347A2
:100A640067AB41119316870106C622C426C24AC049
:100A7400E18663D506049387C71313D457009737C9
:100A84000000938767CCBC479734000083C424A933
:100A94007D5903A70708637327013A899C43F5FB33
:100AA4009387C1909C438297E36DA9F43305A940D1
:100AB40026943334850013451400A9B7058B938716
:100AC400C71209CB8A071384F7039307D00733545B
:100AD400F40275B786071384F7019307D003C5BFE3
:100AE4005D7122DE1384C19D3AD218403ED04ACAB9
:100AF4001C5F86C696C499839AC29EC026DC2ADAF5
:100B04002ED832D636D442CE46CC72C876C67AC4F3
:100B14007EC2858B1389819DC1C31C5F97340000FD
:100B2400938404B793F7F7F91CDF9737000083C762
:100B340027B693F707048DC39387C1909C4382978C
:100B44009737000023AEA7B483C7040093F7F70BCD
:100B540017370000230EF7B2854717370000A30BA1
:100B6400F7B283C7440093F7070481EF9387C19ECC
:100B74009C43D844B8D3930700FC17370000230BD9
:100B8400F7B08387640063D90700832709009C4377
:100B9400173700002301F7B018401C5F8583858B4D
:100BA400C9CBF5571CDF0100010001000100010061
:100BB4000100010001000100010001000100010029
:100BC4000100010001000100010001000100010019
:100BD4000100010001000100010001000100010009
:100BE40001000100010001000100010001000100F9
:100BF40001000100010001000100010001000100E9
:100C040001000100010001000100010001000100D8
:100C140001000100010001000100010001000100C8
:100C24000100010001009387C19E9C4313075004F7
:100C3400B8CB18401C5F9183858B89CFBD571CDFCF
:100C44009387C19E9C4323A8070485471737000058
:100C54002302F7A483270900D8430583058B19C70A
:100C6400D843759BD8C3D843799BD8C37254B64034
:100C7400A64216438643E2545255C2553256A256F2
:100C8400125782577248E2485249424EB24E224F9E
:100C9400924F6161730020309387C19E944317374C
:100CA40000001307E79EBC5289CF83472700858B3A
:100CB40089EB83473700858BFDD797370000238B5B
:100CC400079C82809387819E9C4399CB944BD04B05
:100CD4009842518F98C294439C479842D98F9CC2A2
:100CE4009387C19E9C4337C700401306C003A8CB1B
:100CF40093062003973500009385859983278720E1
:100D0400C18393F7F7036369F60083278720C183C0
:100D140093F7F70363E6F60083C74500858BF9DF95
:100D240082809387C19E9443173700001307479628
:100D3400BC5289CB83470700858B91CB9737000042
:100D4400238A079497370000A386079482808347F9
:100D54001700858BF1DFDDB79387819E9C4399CB88
:100D6400944BD04B9842518F98C294439C479842DD
:100D7400D98F9CC29387C19E944337C70040C14515
:100D8400A8CA654683278720C18393F7F70363FBCB
:100D9400F50083278720C18393F7F7036364F60084
:100DA400BC52EDF382801387C19D1843AA87185F54
:100DB4001583058B25EF0345150015051377C51F0E
:100DC40019C6B386E70083C626002300D60095C55E
:100DD4009736000083C6268C93F606040945A1CAFB
:100DE400B386E70083C63600054693F5F60663909E
:100DF400C504E206E18663CC06023385E700834737
:100E0400150003470500A20793F70770D98F1397BE
:100E1400070141839376074099C61367078023929D
:100E2400E19E014582802392F19EE5BF05458280C3
:100E3400011136C89386C19E2ECC8C423AC63EC45C
:100E440098452ACE32CA9317070142C2C183137848
:100E5400172036853E8697360000938666836304A2
:100E640008041377072061CF03C726001367170010
:100E740017380000230FE88013070019B8D11307AF
:100E840000F8973500002387E5801387C19D0C4344
:100E940037080010D855719B13672700D8D598419F
:100EA4003367070198C11377261005C3137606101C
:100EB40045CA03C706001367170017260000230955
:100EC400E67C172700002319077C83C6460093C7D6
:100ED400F7FFC207E206E186C183184163D1060227
:100EE4009396170163D7060830538D4663E9C6000D
:100EF400854617260000230FD6783453FDFE972627
:100F040000009386E65F8386460163DD06009396C0
:100F14000701C18663D506067053894663E4C6009B
:100F24007453FDFE14477245E245F58F1CC75246C3
:100F3400C2463247A247124805617300203003C7F6
:100F440016001367170097250000A383E57417277D
:100F540000002301077417270000231F0772A1B79D
:100F640003C736001367170017260000A303E672B1
:100F740089BF854617260000230ED67049B754470B
:100F84001396060163510602B7061000FD1674D3CA
:100F9400972600009386865A944E850617260000ED
:100FA400232AD65A41B7A166D58FADBF17270000B3
:100FB4001307C76F8346B7019727000083C757728B
:100FC400B69793F7F70FFD4663EAF6044C4B972662
:100FD4000000A38DF66C9727000083C7376D054783
:100FE4003317F70097260000A38CF66E6D8F1DEF64
:100FF4009726000083C6166FB3F6D70213050002C6
:10100400814733D6F500058A13F8F70F09CE6399A3
:10101400E60097270000A38B0769828081177DB7BC
:1010240005071377F70F8507E39DA7FC8280938755
:10103400419F9843B75702009387079F8326070968
:101044001396560063580600832607091396660014
:1010540063440600FD17FDF3828051C9AA87014548
:10106400C9C98D07C207C183F19BC207C183130796
:101074004003636BF702138741A808431387C1A792
:1010840014436396A6021727000013076747185BEB
:10109400014525C34111C20706C60545DD8D0297EA
:1010A400B240014541018280138701A8F9B7035773
:1010B400650005EF035745006369F702B306F7407F
:1010C40021466370D6021041938687001D8FAA962D
:1010D400611790C22392E6002393060014C12312E1
:1010E400F5002313B50021058280084159BF01454D
:1010F4008280828001CD938741A803A8070093874B
:10110400C1A78C430147C28763E3B700828094433D
:10111400636FF50663EDA60613868700E368C5FED4
:1011240003D56700216605066317C50003C6C19988
:101134000506238EC198239307006384070313864F
:1011440001A81042630FF6000356670019EA83D71B
:10115400470014C383564700B697A1072312F7002C
:10116400BA879843E304B7FA938601A89442E30F3D
:10117400D7F883566700D9FA83D647000356470049
:101184001843A106B2962392D70098C382803E8763
:04119400B6879DBFBE
:10119800974100209381816B17710020130101E6AC
:1011A80013054000972500209385456517360020D4
:1011B8001306067E63FAC5008322050023A05500A6
:1011C80011059105E3EAC5FE172502001305C5E8D8
:1011D800973500209385C57B1386818963FAC500FE
:1011E8008322050023A0550011059105E3EAC5FEF9
:1011F8001385818997650020938585DF6377B5001E
:10120800232005001105E36DB5FE9302800873A045
:101218000230972200209382625E93E2120073905C
:101228005230973200009382624E739012347300EA
:1012380020303D432A876373C3029377F700BDEFDD
:10124800ADE5937606FF3D8ABA960CC34CC30CC72E
:101258004CC74107E36BD7FE11E28280B306C34057
:101268008A069702000096966780A6002307B700B3
:10127800A306B7002306B700A305B7002305B700E8
:10128800A304B7002304B700A303B7002303B700E0
:10129800A302B7002302B700A301B7002301B700D8
:1012A800A300B7002300B700828093F5F50F93964B
:1012B8008500D58D93960501D58D61B79396270046
:1012C8009702000096968682E78086FA9680C11774
:1012D8001D8F3E96E374C3F8A5B7B717004003C740
:1012E80077051377E70FA38BE7043947238CE704C7
:1012F8000D47A38CE70482800547B7170040238D6C
:10130800E704371700408347A705858BEDFF035592
:10131800C705520551818280797122D426D24AD0DC
:101328004ECE52CC56CA5AC85EC662C406D69384FC
:1013380041AA65371309000001444D4A971A020073
:10134800938A0AE8171B0200130BCBE7971B0200CE
:10135800938B8BE7171C0200130C4CE7D149693FAC
:101368002390A40063184403EFC0412683A50A0014
:10137800EFB0913183250B00EFB0515A83A50B00D4
:10138800EFB091302A89EFC041312A86AE86628556
:10139800EFD021040504420441808904E31134FD9F
:1013A800B25022544A8592540259F249624AD24AAA
:1013B800424BB24B224C45618280B717004003C7AD
:1013C80077051377E70FA38BE704130700F8A38DBE
:1013D800E7043D47238CE70413075003A38CE70475
:1013E8008280B717004003D587005D714EDE420545
:1013F800418186C6A2C4A6C2CAC052DC56DA5AD8EF
:101408005ED662D466D26AD06ECE9377050C130787
:10141800000881496386E71813070004639AE714F4
:10142800B7240D8F7D8993840480B3D4A402916777
:10143800938707E8BE94A167938707D0B3D4F402D3
:10144800EFB0510C971702009387C7D89043D44345
:10145800EFB0C13FEFC0212FAA8B939C040103D9A1
:10146800818993DC0C01631509000569130909805A
:10147800B7170040130770052380E704130780FAA5
:101488002380E704B71A00400547939D0401096CBF
:101498002389E704514B01438145138D0A04130640
:1014A8007005930680FA094893DD0D01130C0C7141
:1014B800A9482300CD002300DD0023962A0323003A
:1014C8000D0083C72A05898BEDDF83D70A0583C7FB
:1014D8002A05898BEDFF83C72A05898BEDDF83D722
:1014E8000A05239C2189C207C18333859741131AB2
:1014F8000501135A0A41630B0A143307BA02635EE3
:10150800070C05034203135303016368680C63D98E
:10151800050A3305B04093150501C185C204C18091
:1015280063D7450B0965130505713385A502B71700
:101538000040130770052380E704130780FA23800F
:10154800E7042396370323800704334595024205B1
:101558004181B640264496440649F259625AD25A05
:10156800425BB25B225C925C025DF24D61618280FB
:10157800B1E3B77489097D8993840480B3C4A40254
:101588009167938707E8BE94A167938707D0B3C490
:10159800F402EFB0217797170200938727C47DB52F
:1015A800971702009387C7C2856483AB07009384AB
:1015B800843865B5930B0000954445B53A89D5BD87
:1015C800B387FC40139A0701135A0A4181BF096582
:1015D800130505713305AA028DBF3385B74163E44E
:1015E800FC003385FD40330585033344B50363C5EB
:1015F800880013150401A9BF528532C636C4EFB05E
:101608009170DE85EFB05108EFB0D1691313050171
:10161800135303413307694042074183A2463246C8
:101628000948A948631AE9001307190063444001EF
:101638001307F9FF420741837D1B137BFB0FCA8900
:10164800D285E31D0BF6239CE18865B7014511B7E8
:10165800B717004003D5870039715ECE4205418136
:1016680006DE22DC26DA4AD84ED652D456D25AD0D2
:1016780062CC66CA6AC86EC69377050C1307000861
:10168800814B6388E71413070004639CE710B724B1
:101698000D8F7D8993840480B3D4A40291679387C6
:1016A80007E8BE94A167938707D0B3D4F402EFB0DC
:1016B8006165971702009387E7B19043D443EFB071
:1016C800E118EFC04108AA89939A040103D9A189B6
:1016D80093DA0A0163150900056913090980B71728
:1016E8000040130770052380E704130780FA23805E
:1016F800E704139B04010547096A2389E704D14DD0
:10170800014D814C135B0B01130A0A714A8597201E
:101718000020E780601A330C5541420C135C0C41E1
:10172800239D2189630A0C14B3079C0363D0070E19
:10173800050D420D135D0D01894763E9A70D63DAB5
:101748000C0A33059041931C050193DC0C41C2043B
:10175800C18063D78C0B0965130505713385AC020D
:10176800B7170040130770052380E704130780FAB2
:101778002380E704239677032380070433459502E3
:1017880042054181F2506254D2544259B259225A08
:10179800925A025BF24B624CD24C424DB24D2161DF
:1017A8008280B1E3B77489097D8993840480B3C4C6
:1017B800A4029167938707E8BE94A167938707D02F
:1017C800B3C4F402EFB0015497170200938707A13E
:1017D800EDB5971702009387A79F856483A9070033
:1017E80093848438D5B5930900009544F1BD3E89AA
:1017F80031BF3385AA40131C0501135C0C4181BF1E
:101808000965130505713305AC028DBF63FEAA0097
:101818003305654133054503A9473344650363C868
:10182800870013150401B1BF3305AB40E5B76285E6
:10183800EFB0714DCE85EFB02165EFB0B146131D05
:101848000501135D0D41B307A941C207C183631A9E
:10185800F90093071900634480019307F9FFC20751
:10186800C1831387FDFF937DF70FCA8BE28CE3904A
:101878000DF8239DF18875B7014529B741112A83D1
:10188800014E930E407E130F0019930F400663EB31
:101898006E0A9308001913034006B3781503854EA2
:1018A8000D4FA14F337365020D891335150063E59C
:1018B800BE0C1308F6FF79467298420813580801BF
:1018C8003307C70213D61700BE0732976146B3F62F
:1018D800C60213068070B386C6023697A166F58FD6
:1018E80042075D8FB717004083C6F70293F60608D4
:1018F800A307D1000346F10083C6F70293F6060852
:10190800E394C6FE8346F10093F6F60FF1DE9306E4
:1019180070052380D704930680FA2380D70423AA6E
:10192800070383C6170393E60608A388D702D8DB04
:1019380003C7170313670704A388E7022380070474
:10194800410182807D133368E3039308E016630E38
:1019580008003368F3039308D016630808009378E7
:10196800330093B818009388D81633081E01131E45
:101978000801135E0E0121BF6393E50305486386E2
:1019880008000148630303002A8871087298FD154E
:10199800131E0801C205135E0E01C18109BF13F8A9
:1019A800150063F4BF007908D5B713381800E5BFF0
:1019B800914763EEB702171702001307A7828A053B
:1019C800BA959C41BA978287B717004003A7470B7F
:1019D8001345F5FF698F23AAE70A03A7070B698F49
:1019E80023A8E70A03A7070A798D23A0A70A8280FC
:1019F800B717004083A6470B1347F5FFF98E23AAB4
:101A0800D70A83A6070B558D23A8A70A83A6070A1A
:101A1800758F23A0E70A8280B717004003A7470BFA
:101A2800498F23AAE70A03A7070B1345F5FF45BF0C
:101A3800B717004083A6470B1347F5FF758F23AAF6
:101A4800E70A03A7070A598D4DB7B717004003A740
:101A5800470B498FEDB705E9371700409307700525
:101A68002300F704930780FA2300F704835707023B
:101A7800C207C18393F7F79FC207C1832310F702F8
:101A88002300070482800111B7F507008146300062
:101A9800B105194506CE97200020E780A00DA24782
:101AA80013972701634A0702B71700401307700509
:101AB8002380E704130780FA2380E70403D707028B
:101AC800136707402390E70203D70702136707202D
:101AD8002390E70223800704F2400561828005E134
:101AE800B7170040130770052380E704130780FA2F
:101AF8002380E704238207022380070482804111A0
:101B080006C622C4B7170040130770052380E704F0
:101B1800130780FA2380E70413F7350093F60508C6
:101B2800A382E702A1C68981858993E525002382DE
:101B3800B70237140040230004040545972000200D
:101B4800E780C0F2930770052300F404930780FA36
:101B58002300F4048347440293E7C7002302F402F6
:101B680023000404B24022444101828005472382B5
:101B7800E702C1B7B717004003D587004205418186
:101B88009377050491EB9377F5013755E801130531
:101B980005803345F50282809377050C130700040E
:101BA8006397E7009377F50137459C1CCDB721650E
:101BB800130505D08280B7F700E0C8439C478280B0
:101BC800814737370040A14663C4C7003285828009
:101BD8000345B740E38EA6FE3385F50003450500AF
:101BE80085072304A740CDB7411122C406C62A841D
:101BF80051372947B307E502B2408D83B3D787022F
:101C080022449507B3D7E70237370040C207C1839C
:101C18002316F740410182807165411113050520A3
:101C280006C6D937B7370040130770F82381E74055
:101C38000D47A381E74013070004A380E740054749
:101C48002387E740B24041018280B787004003C73D
:101C580007001377F70B2380E70003C767021377A2
:101C6800F7072383E7028280239201B28280411121
:101C780006C6378700408347570003C541B2858BA6
:101C88009DCF11C5834717000145858B95E7E93F2F
:101C9800B787004083C75700170502001305C555CD
:101CA800858393C71700858B2383F1B285472382E9
:101CB800F1B2EFC0D1065545B240410182806DDDD9
:101CC8006537170502001305E553EFC0510559455F
:101CD800E5B737870040834737001375F50793F753
:101CE8000708C98FA301F700828011C1B9BF3787E0
:101CF80000408347070093E707042300F70082802A
:101D08004111A147014506C622C4A38EF188378434
:101D18000040C1378347140093F7E70FA300F4008E
:101D28002D37834714003D4593F7970F93E7270016
:101D3800A300F40097200020E78020D483471400F4
:101D48001305A00F93F7D70FA300F40097200020E6
:101D5800E780C0D185472303F400B2402244410103
:101D6800828083C741B281E785472382F1B2B78772
:101D7800004003C757005945058B05CF03C7170017
:101D8800058B19EF03C75700098B93361700238378
:101D9800D1B219C703C7170013674700A380E7002C
:101DA8003787004083471700014593E71700A300D2
:101DB800F7008280411106C622C431C1B1477D15A2
:101DC8003305F502138441AF2A94034514001137F3
:101DD80003452400193F834724009DEB37870040C3
:101DE800834767021305400693E707082303F702B2
:101DF8002244B240410117230020670023C703C5CE
:101E080051B2C13D2244B24003C561B24101F1BDA6
:101E1800B240224441018280397122DC26DA4AD854
:101E28004ED652D456D25AD05ECE62CC66CA6AC852
:101E38006EC606DEB78700402387B702B78D00401D
:101E4800AA89328D2385B70213594500014493842A
:101E58006D00094B054AD54B854A7D5CB94C2384F6
:101E68003D03238064019307003203C70400098BF4
:101E780009E7FD17C207C183EDFB23840D0283C761
:101E88000400898BE5C383C70400858B9DC3238029
:101E98004401F13B63147501238E418983C741B224
:101EA800D5C76387570B1305800C97200020E78060
:101EB800E0BB83C70400898BD9C783C77D0093F72C
:101EC8000704C9EB83C77D0093F7F70F13F5F700F5
:101ED8006304950929476319E50263020D08FD5754
:101EE8006303FD007D1D7D141374F40F3D45972099
:101EF8000020E780A0B705041374F40F8947E3F0C6
:101F080087F61305000221A825476309E902B547AA
:101F18006304F9006318590571D913650502F25075
:101F28006254D2544259B259225A925A025BF24B25
:101F3800624CD24C424DB24D216182809D8B0D473F
:101F4800E39CE7FC65B7238084014DB75945C1BFC1
:101F58005545F1B70145E1B71305E002C9B71305C7
:101F6800A00275BF1305E00F5DBF011126CA4AC85C
:101F7800AE842A891305800C06CE22CC4EC652C4E4
:101F880056C25AC097200020E78040AE99C02380EF
:101F9800040037840040A14789692306F4021386A8
:101FA800097181451305000D853D631505149307D7
:101FB80000FD2307F4022305F40285472306F402F3
:101FC800938A418A83A70A0003C4770003C767007E
:101FD8002204598C61CC630B090C83870700378A6C
:101FE80000409389097163CA07041305800C972080
:101FF8000020E780A0A783C7D1896374F400937792
:10200800F40F2306FA0281470347CA026399E710CF
:102018008345EA024E864145013569ED8347CA0288
:102028001D8C4204418081C88347CA0203C704004B
:10203800BA972380F40055F895A8938A018A130566
:10204800800C97200020E78060A28345AA024E8674
:1020580013050009D13359ED03478A009377F40F2C
:102068006376870083478A0093F7F70F1D8C420435
:10207800418091C403C704003E972380E4000147D0
:102088009376F70F6392D7083E9983478A0093F7B0
:10209800F70F89CB03478A0083C7D189FD17F98FCA
:1020A80091E351FCB7870040238607021305800C93
:1020B80097200020E780809BB787004083C7C7022E
:1020C8001305000993F7F70F91E3414509661306D5
:1020D80006719305000C893311ED3787004083475B
:1020E800C70293F7F70F99C78347870093F7F70F4E
:1020F80091C35D45F2406244D2444249B249224A02
:10210800924A024B0561828083A60A00BA9603C6EA
:102118000600B306E90005072380C60095B703A7A4
:102128000A008346090005093E9785072300D70062
:1021380093F7F70FD1BD81479385418AA1463307AD
:10214800F5000346070098413E972300C70085071E
:10215800E397D7FE82800111A147171502001305E6
:1021680065E006CEA38EF188F9379305F100138553
:1021780041B3E53B05E1938741B383C77700A38E5D
:10218800F1880347F1009717020083D707DE6373CE
:10219800F7005D45F24005618280011117150200C4
:1021A8001305C5DB06CE413F9305F100138541B306
:1021B8006D3B29E10347F1009717020083D767DADF
:1021C8005D456369F70283C761B3171502001305FC
:1021D800E5D8A307F10085379387418A9C430347D5
:1021E800F1009305F100A38307002383E70013851B
:1021F80041B3A53BF24005618280411126C2AA8401
:1022080017150200130585D606C622C42D379387F5
:10221800418A9C438145014523819700A38107009A
:10222800A9332A8401E926856D34294597200020A1
:10223800E780A0842285B2402244924441018280F2
:10224800411122C42A84171502001305A5D206C617
:10225800DD359387418A9C43B240814523818700BD
:102268002244A38107000145410101B3411122C461
:1022780006C637840040930700F82300F400A30043
:102288000400A301040093078004A306F40083D785
:10229800018A231CF40083D7418A231EF4002305F6
:1022A800040223070402930790F82300F40093071D
:1022B80000042303F402FD572303F40075328D470D
:1022C8002301F400B2402244238E01884101828018
:1022D800797152CC56CA06D622D426D24AD04ECECE
:1022E8005AC85EC662C4AA8A2E8ABDC1314793877E
:1022F800F5FFB387E7021387C1AFBA9723900700AA
:10230800239107009307FAFF3147B387E702138940
:1023180041AF01448149154C0D4B938B41B23E9915
:1023280083C73A0083C62A00A207D58F63E7F9025C
:102338002945EFC0210E2285B250225492540259E9
:10234800F249624AD24A424BB24B224C45618280E2
:10235800239601B2239701B275B7B3843A0183C7B4
:1023680014006396870583C734008D8B63916705D6
:1023780083C72400139787016187635A0702BD8BBF
:102388003307890063140A0033878B002304F7009E
:10239800B3878B0083C58700050417050200130562
:1023A80025E71374F40FEFC0C102E3638BF803C78A
:1023B8000400C147E3EEE7F64E979379F70F8DB720
:1023C800B9C531479387F5FFB387E7021387C1AFD4
:1023D800BA972390070023910700B1489386F5FF29
:1023E800B38616030346350083472500938841AF1B
:1023F80022065D8E094781470148154F894F138E84
:1024080041B2B698C1426369C800014582802396EB
:1024180001B2239701B2D1B73303050183461300F4
:102428006395E603834633008D8A6390F6038346FB
:102438002300939E860193DE8E41BD8A85C563DEA7
:102448000E00C6972384D700854783460300E3EE32
:10245800D2FA36981378F80F7DB746972304D70039
:102468000D47E5B763D40E00F297E9BF7297FDB741
:1024780083C671B2A5476390F60203C741B2894784
:1024880063FBE70003C601B38547938541AF314835
:102498008948637CF600639FA60203C541B21335E1
:1024A80035003305A040420505A01387F7FF330721
:1024B80007032E9703433700631AA3000347070057
:1024C80063F6E8001395070141818280850793F739
:1024D800F70FC1B741657D158280B71700023971C2
:1024E800938717923ECCC1674ED652D43ECE06DEB5
:1024F80022DC26DA4AD82A8A81479389418AA1466A
:10250800300803A709003E96034606003E97850754
:102518002300C700E396D7FE3784004009691306F5
:1025280009712306F40281451305000DEFF0DF8ED3
:102538002AC6930700FD2307F4022305F402854405
:102548002306940217050200130585F1EFB07168A0
:10255800B24517050200130525F1EFB0916729452B
:10256800EFB0516B83A7090003470A0013060971EE
:1025780041452380E7008345E402EFF0FF892AC63E
:102588002306940217050200130585EEEFB0716467
:10259800B24517050200130525EDEFB091632945F3
:1025A800EFB05167F2506254D2544259B259225A8C
:1025B800014521618280011122CC2A84171502006D
:1025C8001305C59C26CA4AC806CE1389418AA53672
:1025D8008327090081449305F10023828700A382A1
:1025E8009700138541B3EFF05F9815E117150200C6
:1025F8001305C5988936832709009305F1001385CB
:1026080041B323828700A3829700EFF01F96F24020
:102618006244D244424905618280011117150200C3
:102628001305459606CE013E9305F100138541B387
:10263800EFF0BF9311E90347F1009717020083D722
:10264800C7946373F7005D45F24005618280938704
:10265800418A9C43011106CE130730FA2380E70014
:1026680011472382A700A380070023810700A381C5
:102678000700A38207002383E700A38307009305CD
:10268800F100138541B3EFF05F8E19E50347F100C0
:102698008D4763E3E7005D45F240056182809387DB
:1026A800418A9C43130730022380E7000D472381AA
:1026B800B7002382A700A380E700A3810700A382B5
:1026C800070023830700A3830700814501456FF0B6
:1026D800DF89011117050200130505C706CE22CCB4
:1026E80026CA4AC84EC652C4EFB07163EFF04FE134
:1026F8008144014413094006054597100020E780EE
:10270800C037EFF00FE619E5850493F4F40F636B17
:102718009924014405041374F40FE31F24FDEFF01A
:10272800AFD417050200130525D0EFB0515F594407
:10273800F1A8B307890083C507004E850504EFB0EB
:1027480051491374F40F93170401C183E3E397FE0F
:102758002945EFB0314C835789009719020083C986
:1027680009814E852394F1B28357A90083C481B3AC
:102778002395F1B259342A8405E11705020013059F
:1027880025BEA38231B3EFB0D144013C2A84970916
:102798000200938969BC15C5A285170502001305B7
:1027A80025C7EFB0114389472382F1B2A9A8B3071F
:1027B800890083C507004E850504EFB09141137465
:1027C800F40F9317040103D761B3C183E3E1E7FE74
:1027D8002945EFB0314403C991B3639C040C83C409
:1027E80021B4A147639DF4024A85993C2A844DF59A
:1027F8008D472382F1B217050200130565B7A3833D
:1028080091B2EFB0D1510545EFF02FCE2285F240BD
:102818006244D2444249B249224A056182809D47B6
:102828006395F40203C731B48547631DF7104A85E1
:10283800013C2A8435F18D472382F1B21705020045
:10284800130505B4A38391B26DBF8D47639CF40E45
:1028580083C731B4054A6367FA0E8145138541B3CE
:10286800853CAA8517050200130585B2EFB07136BD
:102878004A8583C941B4EFF0BF9C2A84E31E05F062
:10288800238291B2639B490193073002A383F1B27B
:1028980017050200130545B1ADB789476391F90CD7
:1028A80093073003A383F1B217050200130505B19E
:1028B80089BFA5476398F4088D332A84E31E05EC85
:1028C80083C561B317050200130545B0EFB0713039
:1028D80003C761B3914763E1E7042388E1B24A85FE
:1028E800EFF01F962A84E31905EA8D472382F1B297
:1028F800A547A383F1B28544138941AFB149170AAB
:102908000200130AAAAD83C701B363FA970017053B
:1029180002001305E5AEF5B52388F1B2C9B7938770
:10292800F4FFB3873703A1452685CA97238007009C
:10293800BD3309C5A6855285EFB0B129850493F446
:10294800F40FD1B74A85EFF0BF8F2A84E31605E468
:102958008D472382F1B2FD57A383F1B26DB51304FD
:10296800B00F1DBD03C561B2EFF02FB81705020007
:10297800130505AEEFB0F125EFF0EFFD2A84E31D56
:1029880005E09704020083C4545EA204970702007E
:1029980083C7A75DDD8C138941B39709020093892A
:1029A800A99B55B39387418A9C4313073002238020
:1029B800E70005472381B7002382A700A380E7002B
:1029C800A3810700A382070023830700A3830700CE
:1029D800814501456FF06FD979714ECEAA85AA89D4
:1029E800170502001305C58E22D406D626D24AD072
:1029F80052CC56CA5AC85EC662C466C21304E00FF7
:102A0800EFB0311D638709244E85EFF0AFBA170583
:102A180002001305E5A3EFB0D11BEFF0CFF32A8432
:102A2800631905221389F9FF314A330A4903138BC5
:102A380041B383578B00938441AF938B090193FB78
:102A4800FB0F5E8583CA81B3269A2312FA00835747
:102A5800AB002313FA00EFF04FFA2A84631B051E1C
:102A6800A3007A01170502001305858FEFB07116D0
:102A7800EFF0AFF22A84631E051C03CA91B3970BCB
:102A88000200938B6B8D9317040103D761B3C18345
:102A980063E1E7082945EFB0F11783CB21B46396CA
:102AA8000A18A1476392FB08314433048902CE8592
:102AB800138541B3EFF0DF90914997FA0100938AAB
:102AC8002A75269483458400FD19568593F9F90FD4
:102AD800EFB031100504E39709FE2945EFB09113D3
:102AE8005285EFF0EFF52A842DEDB1473309F9024D
:102AF8008D47170502001305A587CA942380F400A3
:102B0800A147A381F400EFB091210545EFF0EF9DB7
:102B180089A2B3078B0083C507005E850504EFB063
:102B2800510B1374F40F85B78D476392FB1403C7D9
:102B380031B4854763EDE712CE85138541B383CB66
:102B480081B3EFF0EFF8AA85170502001305458455
:102B5800EFB03108528583CA41B4EFF06FEE2A8492
:102B680041C5A28517F501001305457CEFB0710634
:102B7800B1473309F902894726992300F90071B74B
:102B88005285EFF05FA319ED8149B3073B0183C577
:102B9800070062858509EFB0D103E39899FF2945BD
:102BA800EFB05107050A137AFA0FE31B7AFDB14912
:102BB800B30939030D4B8547A69923806901639DA5
:102BC800FA0293073002A381F90063FA4A0117F564
:102BD80001001305A571EFB09114A381690117F5E0
:102BE80001001305657C05B7014A17FC0100130CA9
:102BF800AC76930C000455BF09476385EA001304BB
:102C0800B00F85B713073003A381E90063FA4701C2
:102C180017F501001305856DEFB07110A3816901E7
:102C280017F5010013058579F9BDA5476391FA04E5
:102C3800B147B307F90217F501001305A56CA6976C
:102C4800A3815701EFB0B10D22858545A13B2A84A8
:102C58005DD52285B250225492540259F249624AF3
:102C6800D24A424BB24B224C924C4561828031444D
:102C780033048902CE85138541B3EFF06FF491498F
:102C880017FB0100130BCB58269483458400FD19CC
:102C98005A8593F9F90FEFB0C1730504E39709FE5C
:102CA8002945EFB021775285EFF08FD92A84E31AAE
:102CB80005EAB147B307F9020D47A6972380E70055
:102CC80063930A00DE8AB1473309F902CA94A381E3
:102CD800540125BD797122D426D24ECE52CC56CA83
:102CE8005AC85EC662C406D64AD066C205449384F2
:102CF80041B3B149138A41AF854A17FB0100130B51
:102D08002B5897FB0100938B6B5517FC0100130C94
:102D18006C5283C701B3014563FF8700B250225448
:102D280092540259F249624AD24A424BB24B224C5F
:102D3800924C45618280EFF0EF872285EFF03F915A
:102D480071FD03C7040083C761B3058B01C793F600
:102D5800170081E6C146639AD70A1309F4FFB30C3A
:102D680039032285D29C23905C01EFF05F8E5DF5DC
:102D780083C71400A2856285898B13B71700238146
:102D8800EC0091C35E85EFB0C1641305800C971009
:102D98000020E78080CE91452285EFF05F903DFDD1
:102DA8005A85EFB0C177054597100020E780E0CC41
:102DB8002285EFF0DF893DF183C70400C18BE5F779
:102DC8001305400697100020E78020CBD1452285C7
:102DD800D13EC1452285F93631F12285EFF03F8792
:102DE80015FD83C70400858B91E733093903529990
:102DF800230009002285CD36E31205F20545EFE0F0
:102E0800DFEE05041374F40F29B7898B9DCFC545F0
:102E18002285493E17F5010013054548EFB021709A
:102E280091452285EFF0BF87E31A05EE0545971017
:102E38000020E78080C42285EFF07F81E31005EE53
:102E480083C70400C18BFDF36DBF45FF1309F4FF71
:102E5800B3073903D29783C7070081CBA28517F53B
:102E6800010013052545EFB0C1563309390383C75F
:102E78002400858B529923000900C1D7C1452285BA
:102E8800153641B703C741B2894763FCE70203C758
:102E980071B2A5476317F7024111014506C6EFE075
:102EA8007FF10D3DAA8519C517F501001305C53633
:102EB800EFB021520545EFE05FE3B2400145410123
:102EC800828001458280411106C622C426C24AC0BA
:102ED800EFE08FC497F701009387075A8C432A8441
:102EE80017F9010013098959EF90517193044006AD
:102EF800634BA000832509002285EF90D1679324B6
:102F080015009384340683250900228517F90100EA
:102F180013090957EF90916E634BA00083250900B0
:102F28002285EF9051656354A00093041006832511
:102F38000900228517F901001309C954EF90116C93
:102F4800634BA000832509002285EF90D16263546A
:102F5800A0009304F00583250900228517F90100D4
:102F680013098952EF909169634BA00083250900EA
:102F78002285EF9051606354A0009304C005832517
:102F88000900228517F9010013094950EF901167CC
:102F9800634BA000832509002285EF90D15D63541F
:102FA800A0009304A00583250900228517F90100D4
:102FB8001309094EEF909164634BA0008325090023
:102FC8002285EF90515B6354A0009304700583251C
:102FD8000900228517F901001309C94BEF90116206
:102FE800634BA000832509002285EF90D1586354D4
:102FF800A0009304500583250900228517F90100D4
:1030080013098949EF90915F634BA000832509005C
:103018002285EF9051566354A00093040005832540
:103028000900228517F9010013094947EF90115D3E
:10303800634BA000832509002285EF90D153635488
:10304800A0009304B00483250900228517F9010024
:1030580013090945EF90915A634BA0008325090095
:103068002285EF9051516354A00093046004832596
:103078000900228517F901001309C942EF90115878
:10308800634BA000832509002285EF90D14E63543D
:10309800A0009304100483250900228517F9010074
:1030A80013098940EF909155634BA00083250900CF
:1030B8002285EF90514C6354A0009304C0038325EC
:1030C8000900228517F901001309493EEF901153B1
:1030D800635B0500832509002285EF90D14963547D
:1030E800A0009304700383250900228517F90100C5
:1030F8001309093CEF909150634BA0008325090008
:103108002285EF9051476354A00093042003832540
:103118000900228517F901001309C939EF90114EEA
:10312800634BA000832509002285EF90D1446354A6
:10313800A0009304D00283250900228517F9010015
:1031480013098937EF90914B634BA0008325090041
:103158002285EF9051426354A0009304A002832576
:103168000900228517F9010013094935EF90114923
:10317800634BA000832509002285EF90D13F63545B
:10318800A0009304800283250900228517F9010015
:1031980013090933EF909146634BA000832509007A
:1031A8002285EF90513D6354A0009304300283259B
:1031B8000900228517F901001309C930EF9011445D
:1031C800634AA000832509002285EF90D13A635312
:1031D800A000F94483250900228517F90100130985
:1031E800A92EEF90B141634AA000832509002285EA
:1031F800EF9071386353A000E544832509002285C8
:1032080017F901001309892CEF90513F634AA00078
:10321800832509002285EF9011366353A000D1441D
:1032280083250900228517F901001309692AEF90FF
:10323800F13C634AA000832509002285EF90B13351
:103248006353A000BD4483250900228517F90100B6
:1032580013094928EF90913A634AA0008325090091
:103268002285EF9051316353A000B14483250900B2
:10327800228517F9010013092926EF903138634A8E
:10328800A000832509002285EF90F12E6353A0004A
:10329800A94483250900228517F901001309092487
:1032A800EF90D135634AA000832509002285EF906D
:1032B800912C6353A000A14483250900228517F9A6
:1032C80001001309E921EF907133634AA0008325B7
:1032D80009002285EF90312A6353A0009544832585
:1032E8000900228517F901001309C91FEF90113150
:1032F800634AA000832509002285EF90D1276353F4
:10330800A0008D44832509002285EF90312F634367
:10331800A0008144A68517F501001305E51CEFB050
:10332800410BB240224426850249924441018280E1
:1033380003A84500411126C206C622C483471800C7
:1033480003480800A944A207B3E70701C2070D68AC
:10335800C187130828906396070385473284EF5086
:103368001034AA8419ED9387C18A9C4399CB0345ED
:103378001400034704002205598D1335150005056F
:103388008297B240224426859244410182802D458D
:1033980035EFD841411122C426C206C6834717001B
:1033A80003470700B684A207D98F0D67930697A134
:1033B8003284639DD702EFF01FB19727002083C79F
:1033C800E7C86376F500972700202381A7C88547BB
:1033D8002390F4009727002083C747C72300F400F1
:1033E8000145B240224492444101828013078790EC
:1033F8002945E398E7FECC4589472390F400094620
:10340800228597100020E78000ACD9BF82808347CF
:103418004500858BBDC7011122CC2A8403552500A0
:10342800938541BB06CEEF505022058939C5035517
:103438002400014781460546ED45EF50C05C2AC689
:103448000DCD971700209387A75483D7A70201466D
:103458002C002314F10085472315F100972700203D
:1034680083C7C7BE2300F50003552400EF60E07A48
:1034780009C5ED452800EF50C070F240624405616F
:103488008280828041654111938541BB7D1506C6C6
:10349800EF708068B24097160020938666544146C4
:1034A8009545171500201305A54E41016F70E05B87
:1034B80023A6A18A8280411122C406C685470944F1
:1034C8006313F5028347060001442384F18A172712
:1034D80000200347A7B76378F70017050000130516
:1034E80045F3EF90300A2285B240224441018280A0
:1034F80085476303F50209C909476304E5020D47D7
:103508006308E502094582809727002083C707B42E
:103518002380F500014582809387818A83C707004D
:10352800C5BF9717002083D747472390F500DDB71D
:1035380013874180035707002392E50017170020DF
:10354800130707458356A7020357A7032383F500EC
:103558002390D5002391E50075BF411106C6EFF011
:103568009F969727002083C767AE637CF50097274F
:103578000020238DA7AC17050000130585E9EF90FF
:103588007000B24001454101828041677917630CA0
:10359800E502411122C406C685472A84639AF500CC
:1035A80022852244B240938541BB41016F70C056C9
:1035B80089476396F5008545EF90407775D1B2400D
:1035C8002244410182808280CC41411106C6328565
:1035D80003C6150083C5050022064D8E42068D657B
:1035E8004186138875A2630C060F6348C8041388C4
:1035F80045A26306060B634AC800938535A2630992
:10360800B60623900600294679A0138855A26308B8
:10361800060B938565A2E316B6FEC1451D4663EC0D
:10362800E5064546198E63F3C7003E862390C6001B
:1036380097F50100938585EC89A8138895A2630006
:10364800060F634E060B1388A5A2630A060F93851F
:1036580005A5E318B6FA99451D4663EEE502198EED
:1036680063F3C7003E862390C6009385C18031A8C6
:103678009D451D4663E1E5022146198E63F3C700A7
:103688003E862390C6009385018BBA95971000203B
:10369800E78060830146B240328541018280AD45B2
:1036A8001D46E3EAE5FE3146198E63F3C7003E8600
:1036B8002390C60097F50100938505E8F9B7B14551
:1036C8001D46E3EAE5FC3546198E63F3C7003E86DE
:1036D8002390C60097F50100938505E77DB7C1459E
:1036E8001D46E3EAE5FA4546198E63F3C7003E86B0
:1036F8002390C60097F50100938585E179B7C14508
:103708001D46E3EAE5F84546198E63F3C7003E8691
:103718002390C60097F50100938505E4BDB7C14520
:103728001D46E3EAE5F64546198E63F3C7003E8673
:103738002390C60097F501009385C5DEB9B7B54556
:103748001D46E3EAE5F43946198E63F3C7003E8661
:103758002390C60097F50100938545D93DB7971684
:1037680000209386A63B4146CD451715002013053A
:10377800E5276F70802F82809387C18C9C4303C795
:10378800018C83C6718201E781473E85828003D61A
:1037980007006316A60003C66700E308D6FE7D1778
:1037A8001377F70FA107C5B7B2862E86AA8517F536
:1037B80001001305A5DB6FA0D1410111930500039A
:1037C8000D4506CEEF300016930500051145EF3084
:1037D80060159305C0030545EF30C01485471306EF
:1037E800F100854513055030A307F100EF60F15152
:1037F800F240056182808547631AF5001166130659
:1038080086A9894503C5118C6F10405F89476317E6
:10381800F500894503C5118C6F10007582808547B6
:103828006398F50019E2238DB18A2388C18C8280C0
:1038380009476399E50019E6238DF18A03D5818B41
:103848006F00900082809387418C9C43011122CCA9
:1038580006CE2E8481CB9C4791C78297F240624462
:10386800056182806C0013057040EF508174324608
:1038780081452285EF60A10CD5B7411193970501C9
:1038880022C406C6C1872E8463DF070003C5118CD6
:10389800EF10A00719C1EF10A0002165218DB240DB
:1038A80022444101828093F7150091CF171600201A
:1038B800130686279385818103C5118CEF60111843
:1038C80013451400E9BF93F725000145E9DB713181
:1038D8001166130686A9894503C5118CEF1000529D
:1038E800134524006DBF797126D24ECE06D622D458
:1038F8004AD052CC9147AA84AE896314F50483D781
:10390800A5001306E100854513055030239CF18A74
:1039180023070100238D018AEF60313F9387418C93
:103928009C4391C7DC4781C7CE8526858297B250D4
:10393800225423AE918A02599254F249624A45614F
:1039480082801387C18B1843E31AF7FC854503D59A
:10395800818BEFF09FC3854503D5818BEF00807481
:10396800C16703DA818BF917631BFA0205449305D3
:10397800E10013055041238D018AA3838182230727
:103988000100EF5001638347E100B1E303C7018DF4
:103998009147E315F7F815352388018C41B79387CC
:1039A800C18C03A9070003C4018C69D00355290001
:1039B80011C99305E100EF50D02E09C54C45528539
:1039C800EF7080157D141374F40F2109F9BF9387E4
:1039D800818C9C4383C74700898BCDDB9305000A04
:1039E8000D45EF2030749305000A1145EF209073C0
:1039F80081450545EF2010731306E1008545130541
:103A0800503023078100EF60513049B70111170585
:103A180000001305C5E606CE22CCEF1040751384CE
:103A2800118C85471306F10085452300A400130572
:103A38004041A307F100EF50A17E7D55EF401046AD
:103A48007D55EF70400A213BEFF0DFA3E92317050E
:103A58000000130585DAEFF0BFA517050000130570
:103A6800C5D1C523034504008545EF10C028F240A1
:103A780062440561828023A2B18C23A4A18C828038
:103A880023A6B18C2380A18C82809387C18B9C4311
:103A9800797106D622D426D24AD04ECE52CC1147BE
:103AA800639BE70483C7A18B414481CF9387C18C73
:103AB8008043B284B68983C7018C03C7718299EBAE
:103AC80055442285B250225492540259F249624A0E
:103AD8004561828083464400639AA6008346540069
:103AE8006396B600834664006381E606FD1793F784
:103AF800F70F2104E9B709474144E384E7FC2C00A8
:103B08001305504123040100EF50A14A8347810067
:103B18008DCB930500020D45EF20D060930500037F
:103B28001145EF20306095450545EF20B05F85478A
:103B380030008545130550302304F100EF60F11C77
:103B480049B7EFF09FC74144ADBF03552400930523
:103B58006100EF5010152DD54C4503D5818BEF50E2
:103B6800C02E058931DD1399040113590901014754
:103B780081464A86ED4503D5818B035A0400EF4000
:103B880090682AC64D4415DD2686CE85231441014A
:103B98002315210197000020E780E03201462C0020
:103BA80003D5818BEF6060072A84E30C05F0ED45AF
:103BB8002800EF40107D31B7C841011122CC06CE54
:103BC800328403461500034505002206498E19CBA9
:103BD8000D681308B8A42D45630A0607F24062442D
:103BE800056182800D651308D5A4630006031308D8
:103BF80025A2630C060175781308E85C3298420820
:103C080013580801854863EF080303D5A50036C695
:103C180032C4EFF07FB6B24615C19387418C9C43FE
:103C280022468345550003A30700A2876244F24059
:103C380003454500368785460561028323900600C3
:103C4800014569BF1308B5A46317060303D6E182CB
:103C58001D45E375C7F8198E63D3C7003E86CC456A
:103C68002390C60042064182BA952285970000201B
:103C7800E7806025F1B79307A5A46318F60091477C
:103C88002390F6001146CC45CDB79307859063176E
:103C9800F60089472390F6000946F5B79307E5A48F
:103CA800631AF600DC452390160183C7070023003A
:103CB800F40079B713057590E314A6F8D9BF01117C
:103CC80022CC06CE26CA4AC82317D1002D4431EB90
:103CD800DC412E89B28403C4170083C7070022047D
:103CE8005D8C8D679386D7A46306D400938627A33B
:103CF8006310D4040355A900EFF01FA819E101448B
:103D08000DA09387418C9C4383455500034545008E
:103D180003A807002286A6871307E10081460298B8
:103D28002A842285F2406244D24442490561828055
:103D38009386C7A46314D4028357E100054735442A
:103D4800E391E7FE0345060013040008E3EBA7FC34
:103D58009387418C9C43DC43829755B79386279081
:103D6800631AD4028356E1008547EF5040132A8432
:103D78004DF99387C18C8356A9009C4303C7018CD6
:103D88003DDF03D627006302D6047D171377F70FAC
:103D9800A107FDB79387E7A4E313F4F68357E1007F
:103DA80005473544E39FE7F603450600130400087A
:103DB800E3E9A7F6DC452380A7009387418C9C4361
:103DC8003335A0000905DC4341BF1387418C1843F4
:103DD80003C5470083C5570083C71400032807009D
:103DE80003C70400A2078946D98FC207C1870547C0
:103DF8006383E7008D460D66A6871307E100130667
:103E08002690029839BF411122C441641305F4FF7A
:103E1800938541BD06C626C24AC0EF60F04F130520
:103E2800F4FF938541BC971400209384A4D0EF60DD
:103E3800B04E971600209386E6E94146E945268567
:103E4800EF60B042CC4C2A890945EFF06FEA13873E
:103E5800C18383460700938781830347170003C6FE
:103E68001700138441BE83C50700A306E40083D767
:103E7800A40CA30EE40003D7A416A302C400A30A4B
:103E8800C40003D6A4132310F400231CE40083D732
:103E9800A40D1387418303D5A4102318C400035726
:103EA800070003D6A4142311F40085472303F40064
:103EB8002306D4002307F4002319C400230ED400DA
:103EC8002302B4002314A400230AB4002315040019
:103ED800230B0400231D0400230F04002312E40213
:103EE80003D7A4189385C1C02303F4022310E40266
:103EF800231104020D45EFF0AFDFA2851D45EFF059
:103F08003FB8B24022444A85924402494101828026
:103F18008D67138527A36301A6049387D7A401455A
:103F2800631EF6008947639CF5008547354563970E
:103F3800F60083470700238BF18C014582808D476B
:103F48002945E39DF5FE85473545E399F6FE834708
:103F58000700238AF18CD5B785473545E390F6FEEF
:103F680083470700A389F18CC9BF8D67138527A3F1
:103F78006308A6029387D7A46317F6028947639B51
:103F8800F50083C7618D2300F70085472390F6006D
:103F9800014582808D476398F50083C7418DE5B759
:103FA80083C7318DCDB723900600DDB701458280E8
:103FB80025E303A84500AE88834718000348080096
:103FC800A207B3E707010D68930EF8A4639AD70315
:103FD80091473548639FF60203A5C8004111B28591
:103FE800114606C697000020E780E0ED9387418ED2
:103FF8009C4305458297B240014842854101828031
:104008009308289029486396170185476F403069BF
:104018002D4842858280416541119385C1C17D1536
:1040280006C6EF60702FB24097160020938646D1DF
:104038004146994517150020130585CA41016F604F
:10404800D02223A2A18E828001119385C1C122CCE6
:1040580006CE2A84EF40705F058929C10147814651
:104068000546ED452285EF40101A2AC605C997175F
:1040780000209387E7C683D7A70501462C002314A1
:10408800F10085472315F100230005002285EF5034
:10409800D03809C5ED452800EF40B02EF240624403
:1040A8000561828041677917630CE502411122C4DA
:1040B80006C685472A84639AF50022852244B240C1
:1040C8009385C1C141016F60302589476396F5002A
:1040D8008545EF80B04575D1B240224441018280C8
:1040E8008280411106C6EFD0CFAFBD4763F4A70069
:1040F800EFD02FAFEFD0CFD5BD4763F4A700EFD0F7
:104108002FD5B24083D5A18903D5818941016F009C
:104118005076411193962500AA852D4506C697002D
:104128000020E78020A5B24001454101828041116D
:1041380022C426C24AC02A842E89B284AA8593063C
:1041480000200146254506C697000020E78080A28A
:10415800931629002686A285294597000020E78026
:1041680060A1B24022449244024901454101828043
:10417800011122CC06CE3714004026CA4AC84EC6C2
:1041880052C483447405034AB4058349840503492A
:104198009405EFD08FA28347A40593F4F40F137A04
:1041A800FA0F93E71700230DF40493F9F90F137925
:1041B800F90FB717004003C7A705058B6DFF03D597
:1041C800C705A38D4705238C3705A38C2705A38B2B
:1041D8009704F2406244D2444249B249224A0561F6
:1041E800828041119397050122C406C6C1872E8497
:1041F80063DD0700EF00607119C1EF00606A216597
:10420800218DB24022444101828093F7150013C5E5
:104218001500E5FB9397250163D00702EF10D1073E
:10422800C93537F60200130606E0896503C5818E95
:10423800EF00D03C0965E9B7939715010145E3D232
:1042480007FC17E501001305253DEFA0412D1306D6
:104258000064916503C5818EEF00503A11654DB732
:104268001D71494697E501009385853617E50100DC
:104278001305055F86CEEF00302201E917E501003E
:1042880013054536EFA0A12901A037F700E0F9573B
:104298005CC7FD571CCB8566B7E700E023A0D710A5
:1042A8001306701010C3B8434146B0C323A0D718F3
:1042B800B8C3010001001306C00381454808EF0098
:1042C8009017971700209387271B3ECA8967938703
:1042D8000780231CF100ED47A301F1029307A0100A
:1042E8002312F102D1472303F102A167938707E064
:1042F8003ECE97070000938707E2BEC497070000E9
:10430800938727E3BEC685472304F102B5472308F0
:10431800F10297E7FFFF9387478A3EDAB7F5070070
:1043280097070000938707E53EDE81469707000060
:10433800938767DB7000E1051945BEC09700002030
:10434800E780408358088147994670003E960346A7
:10435800060085070507A30AC700E398D7FED247DA
:1043680091C70357810185676373F70001A0480867
:10437800EF007063AA8501C917E501001305C52779
:10438800EFA0210501A0F6402561828041111705A3
:104398000000130545E506C622C4EF00505D1384EE
:1043A800818E2300A4002928034504002244B2403A
:1043B80037F60200130606E0896541016F001024F4
:1043C800411106C6B7170040130770052380E7049C
:1043D800130780FA2380E70403C7F7021377A70FB0
:1043E800A387E70203C7F70213672700A387E7023B
:1043F800EFF03FCF1305407E8147014781460546D0
:104408008545EFD0AFC7B240014541016F10A0010B
:1044180082807D15954763E7A70C17E7010013070E
:10442800E71F0A053A951C41011106CEBA97828703
:104438002C0013054030EF50917F2C000545EF30DC
:10444800502417E501001305E520EFA0410D8DA8C4
:1044580017E5010013050521CDBF83D7A5000D661B
:1044680013060620914503C521852398F184EF00A2
:10447800F01817E501001305E51FC1BF17E5010096
:1044880013050520D9B783C72500114717E5010093
:10449800130585206380E70419476396E70283C5FF
:1044A800650017E501001305E520EF909172854737
:1044B80030008545130550302304F100EF60E10416
:1044C800F240056182801547E393E7FE17E5010096
:1044D80013050520EFA0A104D9BF17E501001305B6
:1044E800A520A5B7828041119397050122C406C66D
:1044F800C1872E8463DD070003C52185392111C1D9
:1045080045262165218DB24022444101828093F7DE
:10451800150013C51500E5FB93F7450099CF83C730
:1045280021851307401F81462146A14503D50185F2
:10453800EF50314A13454400F9B793F72500014578
:10454800F9D31306007D894503C52185EF00100BBB
:10455800134524004DBF011122CC26CA06CE4AC8F5
:104568004EC652C456C2BA843E84B5E68D67938758
:10457800D7A4AA8AAE89328A631FF6028947639C48
:10458800F50203470700854735496310F70817E523
:1045980001001305A50BEF90D1638345040017E5CF
:1045A8000100130565ECEF90D1622945EF90916603
:1045B8002285EFD09FF22287624483C60400F2402E
:1045C800D24442495286CE85224AB2495685924AF9
:1045D80005616FF0FF938547639EF600228762446A
:1045E800F2404249B249224A924AA686D24405611B
:1045F8006FF0BF97894701496399F6001306401F7A
:10460800894503C52185EF00607FF24062444A85F1
:10461800D2444249B249224A924A05618280011134
:1046280017050000130565EC06CE22CC26CAEF005C
:1046380010349384218505442380A40070008545A7
:104648001305503023068100EF50316C1386018426
:104658009D4513056030EF50516B17060020130677
:10466800E66FF54513057030EF50316A17E6010023
:10467800130646FCD5450145EF3070748D47700030
:104688009145130570402305F10023048100A3051B
:10469800810002C6A3040100EF409138300085452F
:1046A80013050040EF40D1371306910085451305E7
:1046B8001040EF40F1361306A10085451305204050
:1046C800EF4011361306B100854513055040EF4001
:1046D800313599477000854505452306F100EFE01F
:1046E8009FDDEFF04FF2970500209385256613852F
:1046F8008184EFF04FB803C504008545ED2BF240E7
:104708006244D244056182807971014506D622D47B
:104718004AD04ECE52CC56CA5AC85EC626D2EFD020
:104728008FB31305800497F0FF1FE780801D1545A0
:1047380097F0FF1FE780603485450545EFD02FBA15
:10474800371400408327840A8D451305002093E71A
:1047580007202324F40AEFD0AFA58327840A8545D0
:104768001305001093E707202324F40AEFD04FA481
:104778008D4513050020172900201309E94FEFD0B4
:104788002FA3EFD06FC923A0218B972700209387F1
:10479800A75223A2F18AEFD07FADEFF07FACEFF004
:1047A800FFBEEF50517C416AEFF04FA6B789004039
:1047B800BD35854A554B7D1A938B41AF97F0FF1F46
:1047C800E780207483C769000145858B89CB2383E3
:1047D8005901EFD0CFC963146501238E518983C76E
:1047E800C18999E3631C65011305800C238E018838
:1047F80097F0FF1FE7806028EFD0BFEDEFE08FE86C
:1048080013053002EFD0DFC6630345071374F50FB5
:104818002285EFD02FDA25C09307F4FF3147B387FD
:10482800E702DE9783C4870093F7F400A9C3939542
:104838008401E185FD85014693F5050C13E504091E
:10484800EFD08FDD0DE593C404080DC87D14314504
:104858003304A4025E942304940003C689001376EB
:10486800F60F11C6CA8685450145EFF00FA205452A
:10487800EFD0AFC7A1B783C4C1B27DB7238691B2C9
:10488800E9BF23AC05FE1C4191E7010001000CC102
:104898008280BA8703A787FF6DFF23ACB7FE8280AB
:1048A8001DC18346E5FF1307F00F9147639EE6009D
:1048B800411106C697000020E7808003B240814777
:1048C8003E854101828095473E85828001E9014508
:1048D80082800145B240224441018280411122C4B4
:1048E8002A84210542059305D004418106C6970014
:1048F8000020E78040F671DDFD57232005002312D4
:1049080085002303F5002105F1B71387018F1C43A8
:10491800411122C426C24AC006C601440149BA84CC
:1049280089E7A16591250DC401A803C7E7FF6318AE
:10493800A7021DC8A165C1269840832784FF631775
:10494800E40223A8F18EFD57232C04FE230FF4FE66
:104958002285B2402244924402494101828011E0FA
:104968003E8983A787FF6DBF3E84E5BF232CF9FEF0
:10497800D9BFA9C9411122C406C62A849727002095
:1049880083C7573B2E856368F400193F0D45B24035
:1049980022444101828083A785FF99E703C7E5FF89
:1049A8009307F00F6305F700E53D1545CDB7238F55
:1049B80085FE1385018FF13522852244B240A16519
:1049C800410115AE1545828023A8018E8280938708
:1049D80041909C4399E33E85828003D72700631664
:1049E800B70003C70700E308A7FEDC47E5B7411196
:1049F800939705014AC006C622C426C2C1872E89DC
:104A080063DE0700193711C1613D21653345A900EF
:104A1800B24022449244024941018280AA8601455B
:104A2800E5D901443D47B3578940858B95CB93879A
:104A3800C18F8443BD4791E28147A2978E07054500
:104A4800BE9433158500131405019C40C84041806D
:104A5800829723A0040023A20400334524014DBFFC
:104A68000504E312E4FC0144CDBF97270020938797
:104A7800A7289C53411122C406C61384418595C7B3
:104A8800829723AAA1840840B74703009387D73F9A
:104A98003305F502B7A72600938737ECB2402244C6
:104AA8003E9523AAA18441018280972700209387FD
:104AB800672818409C4BBA9723AAF184E9B79387D3
:104AC800418F90439726002083C6D626814713F747
:104AD800F70F6360D70A172700200347573B914712
:104AE80063E0E70A9727002083C7073F918BC9EB4C
:104AF8000111680006CE22CC26CAEFB0706AFD56B6
:104B0800630FD50C32479727002083C7172063F31C
:104B1800E70C172700201307E72140471727002035
:104B28000347C71E6305D406058B21CF51473304BD
:104B3800E40263F1870A97F0FF1FE780405EB247FF
:104B48006373F400A287172700200347171C998F67
:104B58003E95972700209387271A8387470163CDBF
:104B68000702B707C0A86369F502B70740573E9523
:104B780025A085071397170032970357E7FF21DB16
:104B88008280130790023304E40205805DB7620750
:104B98006187635707001D8D19E93705C0A801A86B
:104BA800E37BF5FE3707C0A8B307F7403E95972784
:104BB800002093876714DC53829709ED972700201C
:104BC8009387872C9C4F99C7EF003128EF108100FD
:104BD800EF00111CF2406244D2440561828097279D
:104BE800002093872715DC47E386A7FE17270020B8
:104BF8001307871083464701BA84858A9DC65144A6
:104C0800338487029727002083C73710E3F487FC93
:104C180097F0FF1FE780A0509727002083C7F70E63
:104C28001D8C2295838744011DBF13049002338491
:104C380087020580C1BF2A9609E582800505A30F72
:104C4800B5FEE31DC5FED5BF81473307F500030751
:104C5800070019E33E8582808507C5BF01112E86AE
:104C680026CAAA84131506019305F004418122CCB3
:104C780006CE32C697000020E780E0BD2A8419C519
:104C88003246A68597F0FF1FE780E0232285F24091
:104C98006244D2440561828081476314F600054569
:104CA80082803307F5008507B386F50003470700C0
:104CB80083C6F6FFE383E6FE014582809307F6FF8D
:104CC800BE952A966313C5008280FD1583C715001B
:104CD8000505A30FF5FEFDB7814711E9014582805F
:104CE8003307F50003470700E31AB7FE8507E31902
:104CF800F6FE054582809727002083C7B703637FA8
:104D0800F5001387418F9317150008433E95835785
:104D18000500DD8D2310B500014582800D45828098
:104D2800FD57011117270020232CF7009387419086
:104D380022CC804326CA4AC84EC652C406CE56C2A2
:104D48002A89814497290020938909FB172A002082
:104D5800130A4AFE184481476374E900B3072741E0
:104D680003A749021CC409CB0327CA0063F6E7005E
:104D7800172700202326F7FCA1E3835524009DE58F
:104D88005C44A1E423A2F190832AC4002285970001
:104D98000020E780E0B5568455FCF2406244D244D6
:104DA8004249B249224A924A056182800345040079
:104DB80099375C4081CB1CC483572400F1D3A2846B
:104DC8004044D9BF1C44CDDFC5BFDCC475BF97279D
:104DD800002083C737F66371F5021387418F931755
:104DE8001500084393C5F5FF3E9583570500FD8DD3
:104DF8002310B500014582800D4582809727002049
:104E080083C757F36364F50001458280411122C4CA
:104E180026C24AC006C62A842E89B284EFF03FBB58
:104E280001C504C505452DA0936504F0C205C181DF
:104E3800414597000020E78000A20DE19727002058
:104E4800938787EB9C5B81C7A285114582970145B3
:104E5800B2402244924402494101828093874190A2
:104E68009C438DE323A2A19085472326050004C512
:104E78002311250123008500A300F5002322050046
:104E880055B7BA87D84775FFC8C7F9BF45C539713F
:104E98005AD0138BC18F22DC26DA4AD84ED652D488
:104EA8005ECE66CA6AC86EC606DE56D262CC36893F
:104EB800328AAE89AA8401445A8DB94D854BF94C82
:104EC80003270B00131C3400937AF40F62971C43DA
:104ED800A9EF13B5FA0013451500B3978B0063F6D5
:104EE8005D01930714FFB397FB0093950701C181F8
:104EF800528629371DC983270D000145E29784C3CF
:104F080023A237016304090023005901F2506254B7
:104F1800D2544259B259225A925A025BF24B624C0D
:104F2800D24C424DB24D216182800504E31A94F9B6
:104F38002145E9BF09458280411122C426C24AC0E1
:104F480006C6AA842E893284553DCA852685EFF087
:104F58001FA809C940C10145B240224492440249F0
:104F6800410182802145CDBF411122C426C24AC0D9
:104F780006C6AA842E89EFF09FA52A8419C1231199
:104F88000500CA852685EFF09FE4014511E0194523
:104F9800B240224492440249410182807547636BC2
:104FA800A7041387C18F1443411126C293143500F7
:104FB800A696944222C406C6AA873A84094595C68D
:104FC80013B5F7003947134515006373F700C51784
:104FD8008545B395F500C205C18179371C40014567
:104FE800A69723A0070023A20700B24022449244B8
:104FF8004101828009458280411106C6EFF03F9D3C
:1050080009C50845B240410182800145E5BFF54721
:1050180063EEA7049387C18F9C4313173500BA9793
:105028009843894729C7011126CA06CE9334F5004B
:1050380022CCB94793C4140063F3A700451505446F
:105048003314A400420441802EC62685A2856D37FC
:105058008947324611C5A2852685EFF03FDA814798
:10506800F2406244D2443E850561828089473E858C
:105078008280239CA18E239DB18E8280411106C619
:1050880023A0A1900295B2409727002023AEA7CA7B
:10509800014541018280994763E9B7008A0597274E
:1050A8000020938727CBBE9588C18280411106C610
:1050B80022C426C2EF50217271468145172500206F
:1050C800130545C9EFF03FB717240020130484C621
:1050D8001306000222858145EFF0FFB523A2019057
:1050E80023A001909727002083C7C7C213D52700A4
:1050F8008D8B3E958D473305F50299479305101022
:105108009384819035051375F50F2301A4003305A9
:10511800F5021305050F97F0FF1FE780C07323AE54
:10512800A18E834724001305050F88C08A073E9582
:1051380023AAA18EEFF05F89B12683471400984017
:10514800170600001306E68A93962700BA9690C2BF
:1051580093862700850793F7F70FA300D400B24082
:1051680022448A07BA9790C39244410182809727C4
:10517800002083C737BC172700200347C7BB63F14C
:10518800E70213878190184393861700172600209B
:10519800A302D6BA93962700369708C33E85828025
:1051A8009307F00FE5BF1C416388071441777D8F93
:1051B800B706002089476312D71403574500630ECA
:1051C8000712411122C419462A849305F00F590584
:1051D80006C6EFF07FB005478D47630AE510130652
:1051E800C003814517250020130505B1EFF0BFA4C2
:1051F8001306C003A285172500201305E5AF97F015
:10520800FF1FE78040CC172700200357A7AF972739
:105218000020938767AE19E7130700209726002020
:105228002392E6AE172700200347E7AD11E70547AD
:10523800972600202389E6AC172700200347B7AC40
:1052480011E76D4797260020A38FE6AA17270020AD
:10525800034787AB11E71547972600202386E6AA60
:1052680017270020034757AA11E70547972600206C
:10527800A38CE6A817270020034757A919E703C7F7
:10528800070197260020A383E6A8172700200347D5
:10529800C7A711E75147972600202388E6A61727B6
:1052A8000020034747A719E7130780029726002025
:1052B8002383E6A617270020034737A519E7130716
:1052C800D00297260020A382E6A40347D40111E761
:1052D800094797260020A38FE6A29C5791C782977B
:1052E80097270020239BA7A4EFF05FDC8147B240FB
:1052F80022443E854101828089473E858280011192
:1053080022CC06CE2A842EC6EFF02FF6B245F24004
:10531800818D33A5A502229562441375F50F0561A9
:105328008280011122CC06CE2A842EC6EFF0EFF33C
:10533800B245F240818D33A5A5022295624442050B
:10534800418105618280011122CC06CE2A842EC6B5
:10535800EFF0AFF1B245F240818D33B5A502229549
:10536800624405618280972700209387E7989857C1
:1053780025C3411122C426C206C6BE840297172738
:1053880000200357879B2A8441C7BA876373A70005
:10539800AA87C207C183BA866373E400A286C206DD
:1053A800C182958F51476355F706DC5491C38297A4
:1053B800854717270020230DF7ACEF00E16D9727ED
:1053C8000020239C8796B240224492444101828067
:1053D8009727002083C7C7AB9DE7972700209387AF
:1053E800A7AA83C79700850793F7F70F1727002009
:1053F800A300F7AAA18B9DC785471727002023196B
:10540800F7A86F00216F97270020A38307A8D5BFAF
:105418009727002083C7C7A7DDD72244B24092440C
:105428004101C5B78280972700209387E78CD8571A
:10543800011122CC06CE3E8401C72AC60297324506
:1054480011CD23A6A19017F5FF1F1305C5CEEFF0C8
:10545800FFC2F2406244014505618280830744012E
:1054680063DD07009727002023A2078E97F7FF1F09
:10547800938707C723A6F190F9B797F7FF1F93877C
:1054880007CACDBF011122CC172400201304C486FB
:10549800084406CE26CA19E50545F2406244D244BE
:1054A800056182805C58EDDB185C7DD7700085450E
:1054B80082971844B247E301F7FE8357C4001725C3
:1054C8000020034545849305E0043305F50297243D
:1054D8000020938424864205418197F0FF1FE780CE
:1054E8008037172700202325A7865DD5972700201A
:1054F80083D74781172600200346E6803306F60245
:105508009305F00FEFF02FF3D04C084497170020C5
:1055180083D7477F08C29715002083C5C57EB3850A
:10552800F5021C5C89818297C84C97F0FF1FE780C1
:10553800203C01459727002023AC0780B9BF4111C3
:1055480022C4171400201304247B1C4426C206C658
:10555800971400209384047EADCB1C5CBDC7DC4C43
:105568008DE78357C400171500200345C5799305B7
:10557800E0043305F5024205418197F0FF1FE780FB
:10558800802D9717002023A5A77CC84C1DCD971701
:10559800002083D72777171600200346C6763306E0
:1055A800F6029305F00FEFF00FE9D04C0844971777
:1055B800002083D7277508C29715002083C5A574D6
:1055C800B385F5021C5C89818297C84C09C997F09C
:1055D800FF1FE780E0319717002023AB0776B24022
:1055E80022449244014541018280011126CA971440
:1055F80000209384247422CCC04C4EC652C456C298
:1056080006CE4AC8AA8AAE89328A31EC1719002018
:105618001309896E8327890099E3A94471A08357E8
:10562800C900171500200345056E9305E0043305EE
:10563800F5024205418197F0FF1FE780C0212A84C7
:1056480041C583274903C9C39715002083C5A56BA6
:10565800171700200357076BB385E5022A86032531
:1056680089008981829791451307A00589819397BD
:105678002500A29783C607006395E60483C6170032
:10568800639E560385058A054E86A295528597F036
:10569800FF1FE7804083DC4C8144638787002285B5
:1056A80097F0FF1FE780C024F240624426854249F4
:1056B800D244B249224A924A0561828083D52700A2
:1056C80075B7DC4CE38B87F4228597F0FF1FE780E2
:1056D8002022A1B79717002093870762984729CB04
:1056E8009C5FB9C785466315D504411122C41714B8
:1056F800002013042464504C06C61DC697160020CB
:1057080083D646609715002083C5E55FB385D5022B
:105718003A8589818297484C97F0FF1FE780401DA2
:105728009717002023A60762B240224441018280D5
:105738008280971700209387E75FD84F011122CC0A
:1057480026CA4AC852C406CE4EC62A89AE843284B6
:105758003E8A35E7971900209389095A83D7C900EB
:10576800171500200345255A9305E0043305F50273
:105778004205418197F0FF1FE780E00D9717002051
:1057880023A8A75C2A8611E92945F2406244D2443D
:105798004249B249224A0561828003A5890005C1B0
:1057A80083A7490389CF9715002083C5C5551717C7
:1057B800002003572755B385E50289818297032581
:1057C800CA0191461308A005FD5593D72600C207C4
:1057D800C183139727002A9703460700631B060314
:1057E800834817000356270063932803B306D6405F
:1057F80063CD960085078A073E952686A28597E0A1
:10580800FF1FE780406C014549B7A300B700B28687
:105818006DBF171600200356E64E9715002083C566
:10582800854EB385C502338696001106E3EEC5F4AE
:1058380013863400719A1106B29623000701A3005B
:1058480027012311D7007DB7971700209387874E2C
:10585800D44F8DCE91471306A0059305F00F898389
:105868008A07B69703D7270003C5070009830A07E5
:105878003697631DC500034517006316B500035727
:1058880027002391E70083D72700D1BF01458280F5
:10589800011106CE2EC6EF70A03801C9B245F240FC
:1058A8000355250005616FA0805AF24049450561FE
:1058B8008280A38C0192238C019223A0019223A2BF
:1058C800019223A4019223A6019223AE019023AC56
:1058D8000190971700209387A7493707B40098C30A
:1058E8003747A000D8C3370710009306070A94C7A4
:1058F800B7065000C106D4C7930607054107D8CBA1
:105908003707D007410798CF3707840398D337C79D
:105918000700130707B8D8D3416794CB930607014C
:10592800130717F8D8D7417723AE070094D798DB29
:105938008280011126CAAA84214522CC06CE2E8453
:1059480032C636C43AC2EFE07FF81DC9A2461247F4
:105958003246930700FD2300F5009947A300950000
:105968002301F5002303D500A303E5002312C50096
:10597800AA8522856244F240D24405616FE07FFF28
:10598800F2406244D2440561828023A0A1928280C1
:1059980023A2A192828023A4A192828023A6A1920D
:1059A8008280011122CC4AC806CE26CA2A8901441F
:1059B800B30489006368B400F2406244D2444249A7
:1059C800056182802EC6EFF04F8A93170501C183C7
:1059D800A183B2452380F4009307140093F7F70FCF
:1059E800850463F9B700CA9709042380A7001374D4
:1059F800F40F7DBF3E847DBFC16717150020035596
:105A0800C53AFD176302F502411103C6419C93850F
:105A1800019306C6EF70800AB240FD5717170020A1
:105A28002315F73841018280828009C9251513752D
:105A3800F50F1335850E13451500828001458280C8
:105A480023800500F94763E2C708797122D426D27A
:105A58004ECE56CA5AC806D64AD052CC5EC63684EE
:105A6800B289AE8A2A8B814463FF3405B307940058
:105A780003CA0700138914001379F90F63050A0490
:105A8800B3072A0163C1F904B307240183CB0700D4
:105A98005E85613F0DC99307FAFF2380FA00639082
:105AA8006B03130519002295B250225492540259DF
:105AB800F249624AD24A424BB24B45618280D29443
:105AC80093F4F40F55B70145C5B7014582804111DC
